:100000000C9408010C9435010C9435010C943501C5
:100010000C9435010C9435010C9435010C94350188
:100020000C9435010C9435010C9435010C94350178
:100030000C9435010C9435010C9435010C94350168
:100040000C9435010C9435010C9435010C94350158
:100050000C9435010C9435010C9435010C940B076C
:100060000C9435010C947F090C94C70A0C9435014B
:100070000C9435010C9435010C9435010C94350128
:100080000C9435010C9435010C9435010C94350118
:100090000C94BF090C94060B0C9435010C9435019B
:1000A0000C9435010C9435010C9435010C943501F8
:1000B0000C9435010C9435010C9435010C943501E8
:1000C0000C9435010C9435010C9435010C94FF0906
:1000D0000C94450B0C9435010C943F0A0C94840B42
:1000E0000C94350100002100240027002A002D0077
:1000F0003000330001010000040107010A01000083
:100100002200250028002B002E00310034000201BF
:100110000000050108010B0100002000230026005B
:1001200029002C002F00320000010000030106010D
:10013000090105050505070508080808020202026D
:100140000A0A080804040404010101010101010173
:100150000303030303030303040707070C0C0C0C3E
:100160000C0C0C0C02020202060606060606060627
:100170000B0B0B0B0B0B0B0B0102102020080810B4
:100180002040102040800201020108040201010207
:1001900004081020408080402010080402018004E0
:1001A000020180402010080402010804020101023B
:1001B0000408102040800102040810204080000044
:1001C000090A02080B0C0D070603040100000000D9
:1001D000000000000000000000000000000000001F
:1001E0000000000000000000000011100F000000DF
:1001F00000000000000000000000000000000000FF
:1002000000000000B40122053C05F40C360E7E12FD
:1002100011241FBECFEFD1E2DEBFCDBF00E00CBF87
:1002200013E0A0E0B2E0E8EFF0E300E00BBF02C0B3
:1002300007900D92AC38B107D9F71BBE17E0ACE8B8
:10024000B3E001C01D92A63BB107E1F712E0C0E1A7
:10025000D2E004C02297FE010E947618C430D10774
:10026000C9F70E94FC060C9437010C940000F89426
:100270000C947A180F931F93CF93DF93182F092FA5
:10028000E82FF92FDF010D900020E9F7CD018E1B3B
:100290009F0B0E945115EC01009721F0612F702FE8
:1002A0000E946301CE01DF91CF911F910F910895BC
:1002B000FB01DC010D900020E9F7119701900D92F0
:1002C0000020E1F70895FB01DC0101900D92002070
:1002D000E1F70895FB019F01E8944230C4F04532F4
:1002E000B4F44A3029F497FB1EF4909581959F4F02
:1002F000642F77270E943E18805D8A330CF0895D59
:100300008193CB010097A1F716F45DE2519310821F
:10031000C9010C948B01DC01FC01672F71917723DB
:10032000E1F7329704C07C916D9370836291AE17B0
:10033000BF07C8F3089508950F931F938C0183E6B8
:1003400097E040E056E960E070E00E94C30BF801DE
:1003500017AE16AE80E090E01F910F910895709354
:10036000A2036093A1030895CF92EF920F938CE8BC
:1003700093E062E043E024E005E056E0E52E37E05C
:10038000C32E0E94AB110F91EF90CF9008958CE88F
:1003900093E00E94ED100895EF92FF920F931F9348
:1003A000DF93CF93CDB7DEB765970FB6F894DEBF76
:1003B0000FBECDBF8B01DE011596E0E0F2E08AE0D2
:1003C00001900D928150E1F7FE013F9687E0DF0139
:1003D0001D928A95E9F78091110290911202A091E5
:1003E0001302B091140289839A83AB83BC838CE897
:1003F00093E00E94ED108CE893E060E040E00E9402
:10040000BE10C8017E010894E11CF11CB7014AE04E
:1004100050E00E946A018E010B5F1F4FC801B701B7
:100420000E9458018CE893E0B8010E94DE0F6596A7
:100430000FB6F894DEBF0FBECDBFCF91DF911F91F5
:100440000F91FF90EF900895EF92FF920F931F93FB
:10045000262F7A010CE813E0C80160E0422F0E94C9
:10046000BE10C801B7010E94DE0F1F910F91FF90CF
:10047000EF900895EF92FF920F931F93DF93CF9326
:10048000CDB7DEB7AC970FB6F894DEBF0FBECDBFC9
:10049000DE011B96EAE7F2E08DE001900D928150BB
:1004A000E1F7188E198E1A8E1B8EDE011196EBE87D
:1004B000F2E085E001900D928150E1F78CE893E045
:1004C0000E94ED108CE893E060E040E00E94BE10D6
:1004D000E091A103F091A2036081718182819381F7
:1004E0000E94D916DC01CB017E010894E11CF11CAD
:1004F000B7014AE050E00E946A018E01055F1F4F7C
:10050000C801B7010E9458018CE893E0B8010E942D
:10051000DE0FDE015C96E0E9F2E08BE001900D92E7
:100520008150E1F7FE01B79686E0DF011D928A95C2
:10053000E9F7DE011696E1EAF2E085E001900D921E
:100540008150E1F78CE893E060E041E00E94BE104A
:10055000E091A103F091A203648175818681978166
:100560000E94D916DC01CB0176E0E72EF12CEC0ECF
:10057000FD1EB7014AE050E00E946A018E01045E50
:100580001F4FC801B7010E9458018CE893E0B801E1
:100590000E94DE0FAC960FB6F894DEBF0FBECDBF43
:1005A000CF91DF911F910F91FF90EF9008950F93DE
:1005B0001F930CE813E0C80160E142E020E00E94D4
:1005C000F510C80160E00E94AA101F910F910895D4
:1005D000089585E897E040E056E960E070E00E9409
:1005E000C30B80E090E00895FC01862F6083718347
:1005F00061E00E94260808950F931F938C01FC016F
:10060000808161E00E942608F801808160E00E94FC
:10061000D9081F910F9108950F931F938C01FC012E
:10062000808161E00E942608F801808161E00E94DB
:10063000D9081F910F910895CF92DF92EF92FF9208
:100640000F931F936C017B01FC01808161E00E948C
:100650002608F601808161E00E94D9080027F7FC96
:100660000095102FC801B7010E946107F601808133
:1006700060E00E94D9081F910F91FF90EF90DF90EA
:10068000CF900895FC017183608353834283089562
:100690000F931F93062F142F862F61E00E942608C8
:1006A000812F61E00E942608802F61E00E94D90816
:1006B000812F61E00E94D908812F60E00E94D90853
:1006C0001F910F9108951F93CF93DF93162F862FBD
:1006D00060E00E942608C0E0D0E06AE070E080E0C0
:1006E00090E00E946107812F0E940C09892B21F064
:1006F0002196C436D10589F7DF91CF911F910895D6
:10070000CF92DF92EF92FF920F931F93CF93DF93DD
:10071000C62ED42E7901C0E0D0E000E010E017C072
:100720008D2D61E00E94D9086AE070E080E090E0E1
:100730000E946107CC0FDD1F8C2D0E940C09C80F91
:10074000D91F8D2D60E00E94D9080F5F1F4F0E1535
:100750001F0534F3CE01DF91CF911F910F91FF90D0
:10076000EF90DF90CF900895AF92BF92CF92DF923B
:10077000EF92FF920F931F936C01F62EB72EE42E8B
:10078000A52E862F60E00E9426088E2D61E00E9433
:100790002608C6016F2D7B2D4E2D5A2D28E030E006
:1007A0000E948003182F00E08F2D61E00E94260830
:1007B0008F2D61E00E94D9088F2D60E00E94D9083A
:1007C0008E2D61E00E94D9088E2D60E00E94D9082C
:1007D0008F2D60E00E942608C6016F2D7B2D4E2DC7
:1007E0005A2D28E030E00E948003082B192BC80105
:1007F0001F910F91FF90EF90DF90CF90BF90AF903F
:100800000895FF920F931F93F62E042F122F842F1B
:1008100061E00E942608812F61E00E942608802F57
:1008200061E00E94D908812F61E00E94D908802FE1
:1008300060E00E94D908812F60E00E94D908812FD2
:1008400061E00E94D908802F61E00E94D908812FC1
:1008500060E00E94D908802F612F41E02F2D0E9477
:100860003C09812F61E00E94D908802F60E00E943E
:100870002608802F0E940C09812F60E00E94D90871
:10088000802F0E940C091F910F91FF900895CF9225
:10089000DF92EF92FF920F931F936C01FC01408156
:1008A00051812281338163E070E00E940104F601EE
:1008B00060817181C6010E946303F60160817181CC
:1008C00042815381C6010E94B4037C01F60160811C
:1008D000718142815381C6010E9448030027F7FCC1
:1008E0000095102FC801B7010E940C171F910F919E
:1008F000FF90EF90DF90CF9008950E9447040E94F0
:10090000D916882777FD8095982F0E940C172AE02A
:1009100037ED43E25CE30E94BC1720E030E040E2A8
:1009200052E40E94701608956F927F928F929F9268
:10093000AF92BF92CF92DF92EF92FF920F931F93ED
:100940006C01FC01408151812281338165E070E0BE
:100950000E940104F60160817181C6010E94630357
:10096000F6016081718142815381C6010E94B40306
:100970007C01F6016081718142815381C6010E9430
:1009800048030027F7FC0095102FC801B7010E940B
:100990000C177B018C01C6010E947D0420E030E031
:1009A00048EC51E40E9470165B016C01C801B7016C
:1009B0002CEA35EC47EA58E30E94BC172AE037EDF1
:1009C00043E25CE30E9471169B01AC01C601B501D4
:1009D0000E94BC173B014C01C801B70124E533EE6E
:1009E00045E25DE30E94BC1720E030E040E850E4BF
:1009F0000E9470165B016C01C801B70122EA37EE54
:100A00004BE356EB0E94BC17A80197010E94BC174C
:100A10009B01AC01C601B5010E9471169B01AC019E
:100A2000C401B3010E9471161F910F91FF90EF90C6
:100A3000DF90CF90BF90AF909F908F907F906F90FE
:100A40000895089583EA93E065E370E044E350E09D
:100A50000E944203089583EA93E00E94940408955B
:100A600083EA93E00E947D0408950895FC01E05616
:100A7000FF4F1182108208950F931F9380EF94E02F
:100A800060E040E020E000E00E942A0E09EA13E066
:100A90008CE1F80111928A95E9F785EC93E06FE11A
:100AA00070E00E94F40287EC93E06EE170E00E9437
:100AB000F40289EC93E063E270E00E94F4028BECB4
:100AC00093E060E270E00E94F4028DEC93E061E25A
:100AD00070E00E94F4028FEC93E062E270E00E940A
:100AE000F40281ED93E00E94350582ED93E00E94CF
:100AF000360588E794E00E949B018DEB94E00E940C
:100B0000E8028CEE94E00E9421058DEE94E0B8019D
:100B10000E94AF011F910F9108950F931F930DEE47
:100B200014E0C8010E94D702C8010E94C701C80191
:100B300060E070E048EC52E00E942402C80161E0ED
:100B400070E047ED52E00E942402C8010E94C701F4
:100B500088E794E00E949C018DEB94E00E94E902FA
:100B6000C80160E070E046EE52E00E94240210925C
:100B7000EF041092EE040FE117E0C80140E855E2DF
:100B800060E070E00E94C30BC80165EF72E00E9454
:100B9000E10F1F910F9108958FE197E068EF72E0E8
:100BA0000E94E10F08958F929F92AF92BF92CF92D1
:100BB000DF92EF92FF920F931F93DF93CF93CDB706
:100BC000DEB728970FB6F894DEBF0FBECDBF809179
:100BD000EE049091EF0401969093EF048093EE045D
:100BE0000CEE14E0C8010E9430056093A9037093D5
:100BF000AA038093AB039093AC03C8010E942B051A
:100C00006093AD037093AE038093AF039093B003F2
:100C100060ED77E080E090E00E9461072DEEE22E2B
:100C200024E0F22EC7010E943A02C8010E9430055A
:100C30006093A9037093AA038093AB039093AC03D2
:100C4000C8010E942B056093AD037093AE0380939F
:100C5000AF039093B00360ED77E080E090E00E94F6
:100C60006107C7010E943A0282E090E09093C403BA
:100C70008093C3036091EE047091EF04C70140E0DC
:100C800050E00E94CC018BEC93E06EEE72E00E948B
:100C90001C0364EF71E080E090E00E9461078DEC3E
:100CA00093E06EEE72E00E941C0364EF71E080E05E
:100CB00090E00E9461078FEC93E06EEE72E00E947C
:100CC0001C0364EF71E080E090E00E94610707EC94
:100CD00013E0C8010E940C0368E873E180E090E033
:100CE0000E946107C8010E94FC021C821B828EE7E1
:100CF00093E09A8389839FE1892E97E0992E9E82C3
:100D00008D828FEF9FEF98878F838DEAE82E87E0A3
:100D1000F82EC7010E948C145C01C70161E073E0EA
:100D20000E949E149C01C701B50149E053E00E9456
:100D3000891200E113E0C701B8010E949E149C01D2
:100D4000C701B501A8010E948912C7010E948C1435
:100D50006C01C701B60149E153E02EE133E00E9486
:100D6000B5140091B1031091B2032091B3033091F7
:100D7000B403C701B60141E253E00E94E514C70184
:100D8000B60147E253E02CE233E00E94B514C701FC
:100D90000E9495148C01C701B801A6010E9460123F
:100DA000C701B50141E353E098010E948912C701D0
:100DB000B501AE014F5F5F4F0E947A14C4010E94DB
:100DC000B90E0E94CC0564EF71E080E090E00E94D3
:100DD000610728960FB6F894DEBF0FBECDBFCF9146
:100DE000DF911F910F91FF90EF90DF90CF90BF9018
:100DF000AF909F908F900895CF93DF930E94C40788
:100E00000E948D05CEE7DAE00E94D3052097E1F33A
:100E10000E947E0AF9CF1F920F920FB60F921124F3
:100E20002F933F938F939F93AF93BF938091FA0437
:100E30009091FB04A091FC04B091FD043091FE045C
:100E40000196A11DB11D232F2D5F2D3720F02D57A9
:100E50000196A11DB11D2093FE048093FA04909386
:100E6000FB04A093FC04B093FD048091F6049091E0
:100E7000F704A091F804B091F9040196A11DB11DE9
:100E80008093F6049093F704A093F804B093F904C8
:100E9000BF91AF919F918F913F912F910F900FBE76
:100EA0000F901F9018958FB7F8942091FA04309105
:100EB000FB044091FC045091FD048FBFB901CA01AD
:100EC00008959B01AC017FB7F8948091F60490914E
:100ED000F704A091F804B091F90466B5A89B05C089
:100EE0006F3F19F00196A11DB11D7FBFBA2FA92F29
:100EF000982F8827860F911DA11DB11D62E0880FD4
:100F0000991FAA1FBB1F6A95D1F7BC012DC0FFB75F
:100F1000F8948091F6049091F704A091F804B091B0
:100F2000F904E6B5A89B05C0EF3F19F00196A11D95
:100F3000B11DFFBFBA2FA92F982F88278E0F911DA3
:100F4000A11DB11DE2E0880F991FAA1FBB1FEA95E2
:100F5000D1F7861B970B885E9340C8F22150304032
:100F60004040504068517C4F2115310541055105E5
:100F700071F60895019739F0880F991F880F991F0E
:100F800002970197F1F70895789484B5826084BD43
:100F900084B5816084BD85B5826085BD85B581607D
:100FA00085BDEEE6F0E0808181608083E1E8F0E0DD
:100FB0001082808182608083808181608083E0E80C
:100FC000F0E0808181608083E1EBF0E080818460EB
:100FD0008083E0EBF0E0808181608083E1E9F0E0F4
:100FE000808182608083808181608083E0E9F0E09D
:100FF000808181608083E1EAF0E08081826080838B
:10100000808181608083E0EAF0E08081816080837C
:10101000E1E2F1E080818260808380818160808371
:10102000E0E2F1E0808181608083EAE7F0E08081A6
:1010300084608083808182608083808181608083FE
:101040008081806880831092C1000895CF93DF93E0
:10105000482F50E0CA0188589E4FFC0134914E5CE5
:101060005E4FFA018491882369F190E0880F991FFF
:10107000FC01EC51FF4FA591B491FC01E250FF4FF0
:10108000C591D491662351F42FB7F8948C91932F86
:10109000909589238C93888189230BC0623061F4F9
:1010A0002FB7F8948C91932F909589238C938881F6
:1010B000832B88832FBF06C09FB7F8948C91832B16
:1010C0008C939FBFDF91CF910895893009F449C077
:1010D0008A30A0F4843051F1853040F4823079F1C7
:1010E000833000F5813009F063C026C0873079F184
:1010F000883098F5863009F05BC025C08D3009F442
:1011000042C08E3028F48B30B1F18C30C0F52DC048
:10111000803109F442C0813109F445C08F3009F0B3
:1011200047C037C0809180008F7703C080918000D6
:101130008F7D80938000089584B58F7702C084B539
:101140008F7D84BD08958091B0008F7703C080911A
:10115000B0008F7D8093B0000895809190008F77CC
:1011600007C0809190008F7D03C080919000877FA1
:101170008093900008958091A0008F7707C08091A0
:10118000A0008F7D03C08091A000877F8093A00086
:101190000895809120018F7703C0809120018F7D79
:1011A00080932001089580912001877F8093200102
:1011B0000895FF920F931F93F62E482F50E0CA0117
:1011C00082549E4FFC012491CA0188589E4FFC0115
:1011D00014914E5C5E4FFA0104910023C9F0222362
:1011E00019F0822F0E946508E02FF0E0EE0FFF1F3C
:1011F000E250FF4FA591B4919FB7F894FF2021F4DE
:101200008C911095812302C08C91812B8C939FBF70
:101210001F910F91FF9008950F931F93482F50E057
:10122000CA0182549E4FFC012491CA0188589E4FE6
:10123000FC0104914E5C5E4FFA011491112319F4E4
:1012400020E030E015C0222319F0822F0E946508AB
:10125000812F90E0880F991F885E9E4FFC01A59119
:10126000B4918C9120E030E0802311F021E030E057
:10127000C9011F910F910895BF92CF92DF92EF9213
:10128000FF920F931F93CF93DF93E82EF62EB42E89
:10129000C7E0D0E0022F10E087E0C82ED12CBB20A1
:1012A00059F4B6016C1B7D0BC80102C0959587955A
:1012B0006A95E2F7BC0107C0B8010C2E02C0759513
:1012C00067950A94E2F761708E2D0E94D9088F2DE0
:1012D00061E00E94D9088F2D60E00E94D908219713
:1012E0009FEFCF3FD907D9F6DF91CF911F910F9193
:1012F000FF90EF90DF90CF90BF90089508951F92D8
:101300000F920FB60F920BB60F9211242F933F93AB
:101310004F938F939F93EF93FF938091C00082FD33
:101320001DC04091C60020913F05309140052F5FC0
:101330003F4F2F73307080914105909142052817DF
:10134000390771F0E0913F05F0914005E150FB4F06
:1013500040833093400520933F0502C08091C60032
:10136000FF91EF919F918F914F913F912F910F900E
:101370000BBE0F900FBE0F901F90189508951F92EF
:101380000F920FB60F920BB60F9211242F933F932B
:101390004F938F939F93EF93FF938091C80082FDAB
:1013A0001DC04091CE002091C7053091C8052F5F28
:1013B0003F4F2F7330708091C9059091CA0528174F
:1013C000390771F0E091C705F091C805E957FA4F68
:1013D00040833093C8052093C70502C08091CE009A
:1013E000FF91EF919F918F914F913F912F910F908E
:1013F0000BBE0F900FBE0F901F90189508951F926F
:101400000F920FB60F920BB60F9211242F933F93AA
:101410004F938F939F93EF93FF938091D00082FD22
:101420001DC04091D60020914F06309150062F5F8D
:101430003F4F2F73307080915106909152062817BC
:10144000390771F0E0914F06F0915006E15FF94FD6
:1014500040833093500620934F0602C08091D600FF
:10146000FF91EF919F918F914F913F912F910F900D
:101470000BBE0F900FBE0F901F90189508951F92EE
:101480000F920FB60F920BB60F9211242F933F932A
:101490004F938F939F93EF93FF938091300182FD41
:1014A0001DC0409136012091D7063091D8062F5F9C
:1014B0003F4F2F7330708091D9069091DA0628172C
:1014C000390771F0E091D706F091D806E956F94F47
:1014D00040833093D8062093D70602C0809136010E
:1014E000FF91EF919F918F914F913F912F910F908D
:1014F0000BBE0F900FBE0F901F901895E0912B0719
:10150000F0912C07E05CFF4F819191912081318116
:10151000821B930B8F739070892B11F00E947E09B0
:10152000E0914D07F0914E07E05CFF4F8191919162
:1015300020813181821B930B8F739070892B11F066
:101540000E94BE09E0916F07F0917007E05CFF4FC9
:101550008191919120813181821B930B8F739070C7
:10156000892B11F00E94FE09E0919107F0919207FA
:10157000E05CFF4F8191919120813181821B930B1F
:101580008F739070892B11F00E943E0A08951F926C
:101590000F920FB60F920BB60F9211242F933F9319
:1015A0008F939F93EF93FF93209183053091840550
:1015B00080918505909186052817390731F480912F
:1015C000C1008F7D8093C10014C0E0918505F0912A
:1015D0008605ED5BFA4F2081809185059091860507
:1015E00001968F7390709093860580938505209364
:1015F000C600FF91EF919F918F913F912F910F9096
:101600000BBE0F900FBE0F901F9018951F920F9258
:101610000FB60F920BB60F9211242F933F938F9317
:101620009F93EF93FF9320910B0630910C068091CE
:101630000D0690910E062817390731F48091C900E4
:101640008F7D8093C90014C0E0910D06F0910E06C5
:10165000E553FA4F208180910D0690910E06019678
:101660008F73907090930E0680930D062093CE009A
:10167000FF91EF919F918F913F912F910F900BBE12
:101680000F900FBE0F901F9018951F920F920FB6DC
:101690000F920BB60F9211242F933F938F939F932A
:1016A000EF93FF93209193063091940680919506D5
:1016B000909196062817390731F48091D1008F7DDB
:1016C0008093D10014C0E0919506F0919606ED5AF2
:1016D000F94F2081809195069091960601968F731F
:1016E000907090939606809395062093D600FF9174
:1016F000EF919F918F913F912F910F900BBE0F9083
:101700000FBE0F901F9018951F920F920FB60F9259
:101710000BB60F9211242F933F938F939F93EF93C8
:10172000FF9320911B0730911C0780911D0790911A
:101730001E072817390731F4809131018F7D80937E
:10174000310114C0E0911D07F0911E07E552F94FD9
:10175000208180911D0790911E0701968F739070D4
:1017600090931E0780931D0720933601FF91EF9100
:101770009F918F913F912F910F900BBE0F900FBEB5
:101780000F901F901895AF92BF92DF92EF92FF9249
:101790000F931F93CF93DF93EC017A018B01DD242C
:1017A000403081EE580780E0680780E0780711F04C
:1017B000DD24D39491E0A92EB12CEC89FD89DD20A4
:1017C00069F0C50108A002C0880F991F0A94E2F7CA
:1017D000808360E079E08DE390E005C0108260E8EE
:1017E00074E88EE190E0A80197010E945218215000
:1017F000304040405040569547953795279580E1B9
:101800002030380720F0DD2011F0DD24D6CFE88924
:10181000F9893083EA89FB89208319A2EE89FF893F
:10182000408121E030E0C9010C8C02C0880F991F73
:101830000A94E2F7482B4083EE89FF894081C90171
:101840000D8C02C0880F991F0A94E2F7482B408341
:10185000EE89FF894081C9010E8C02C0880F991F53
:101860000A94E2F7482B4083EE89FF8980810F8C30
:1018700002C0220F331F0A94E2F720952823208309
:10188000DF91CF911F910F91FF90EF90DF90BF906C
:10189000AF900895DC011C96ED91FC911D97E05CE2
:1018A000FF4F2191319180819181281B390B2F733A
:1018B0003070C9010895DC011C96ED91FC911D97D3
:1018C000E05CFF4F20813181E054F040DF01AE5BEE
:1018D000BF4F8D919C9111972817390719F42FEF5D
:1018E0003FEF07C08D919C91E80FF91F8081282F51
:1018F00030E0C9010895DC011C96ED91FC911D9723
:10190000E05CFF4F20813181E054F040DF01AE5BAD
:10191000BF4F8D919C9111972817390719F42FEF1C
:101920003FEF10C08D919C911197E80FF91F208116
:101930008D919C91119701968F73907011969C9345
:101940008E9330E0C9010895DC0191968C919197B6
:10195000882339F05496ED91FC915597808186FF4C
:10196000F9CF91961C920895CF93DF93EC01EE8509
:10197000FF85E05CFF4F20813181E054F0402F5F14
:101980003F4F2F733070DF01AE5BBF4F8D919C9145
:10199000119728173907D1F3E05CFF4F80819181BF
:1019A000E054F040E80FF91F6083EE85FF85E05CAE
:1019B000FF4F31832083EE89FF89208181E090E011
:1019C0000F8C02C0880F991F0A94E2F7282B2083FE
:1019D00081E089A3EC89FD8980818064808381E036
:1019E00090E0DF91CF9108951F93109222071092FB
:1019F000210728EE33E040E050E0209323073093A6
:101A00002407409325075093260768E573E07093F9
:101A1000200760931F078FEF94E090932C0780932B
:101A20002B0783E495E090932E0780932D0785EC98
:101A300090E09093300780932F0784EC90E0909390
:101A400032078093310780EC90E0909334078093C5
:101A5000330781EC90E0909336078093350782EC52
:101A600090E0909338078093370786EC90E090934E
:101A70003A078093390714E010933B07B3E0B09323
:101A80003C07A7E0A0933D07F5E0F0933E07E1E0B7
:101A9000E0933F07109244071092430720934507B5
:101AA0003093460740934707509348077093420787
:101AB0006093410787E895E090934E0780934D0728
:101AC0008BEC95E09093500780934F078DEC90E05E
:101AD00090935207809351078CEC90E090935407B9
:101AE0008093530788EC90E09093560780935507B6
:101AF00089EC90E090935807809357078AEC90E028
:101B000090935A07809359078EEC90E090935C076E
:101B100080935B0710935D07B0935E07A0935F0708
:101B2000F0936007E09361071092660710926507D3
:101B300020936707309368074093690750936A07BB
:101B400070936407609363078FE096E0909370074B
:101B500080936F0783E596E09093720780937107F7
:101B600085ED90E0909374078093730784ED90E087
:101B7000909376078093750780ED90E090937807B7
:101B80008093770781ED90E090937A0780937907AF
:101B900082ED90E090937C0780937B0786ED90E048
:101BA00090937E0780937D0710937F07B093800703
:101BB000A0938107F0938207E09383071092880730
:101BC000109287072093890730938A0740938B07E9
:101BD00050938C07709386076093850787E996E09A
:101BE00090939207809391078BED96E090939407E2
:101BF0008093930785E391E09093960780939507F0
:101C000084E391E0909398078093970780E391E0B5
:101C100090939A078093990781E391E090939C07B2
:101C200080939B0782E391E090939E0780939D07AA
:101C300086E391E09093A00780939F071093A107FC
:101C4000B093A207A093A307F093A407E093A5077E
:101C50001F9108950F93FC0188E693E091838083A0
:101C600062834383248305830F91089588E693E07C
:101C70009093A8078093A7071092A9071092AA072C
:101C80001092AB071092AC0708958F929F92AF927B
:101C9000BF92CF92DF92EF92FF920F931F93CF9359
:101CA000DF934C016B017C01AA24BB24C0E0D0E08F
:101CB000C601F70162814AE050E00E94790F8C0171
:101CC000C6016EE20E94B10E080F191FA00EB11ED0
:101CD00021960894E11CF11CC330D10549F7C601D7
:101CE000F40165814AE050E00E94790F9501280FC8
:101CF000391FC901DF91CF911F910F91FF90EF9094
:101D0000DF90CF90BF90AF909F908F900895CF922B
:101D1000DF92EF92FF920F931F93CF93DF937C019B
:101D20006B018A01C0E0D0E00FC0D6016D916D015A
:101D3000D701ED91FC910190F081E02DC70119953B
:101D4000C80FD91F015010400115110571F7CE01C0
:101D5000DF91CF911F910F91FF90EF90DF90CF9087
:101D60000895DC01ED91FC910190F081E02D199531
:101D70000895EF92FF920F931F938C01DC01ED9178
:101D8000FC910190F081E02D6DE019957C01D80166
:101D9000ED91FC910190F081E02DC8016AE0199568
:101DA0009C012E0D3F1DC9011F910F91FF90EF90D7
:101DB0000895CF93DF93EC016115710519F420E0CC
:101DC00030E00FC0DB010D900020E9F71197A61B52
:101DD000B70BE881F9810280F381E02DAD011995FF
:101DE0009C01C901DF91CF9108954F925F927F923C
:101DF0008F929F92AF92BF92CF92DF92EF92FF921B
:101E00000F931F93DF93CF93CDB7DEB7A1970FB694
:101E1000F894DEBF0FBECDBF2C01742ECB01223053
:101E200008F42AE019A231E2C32ED12CCC0EDD1E1B
:101E3000822E9924AA24BB24672D752FA501940115
:101E40000E94521879018A01C801B701A5019401C5
:101E50000E941F18472D461B0894C108D1084A301C
:101E600014F4405D01C0495CF6014083E114F104C3
:101E70000105110521F07E2C5F2DC801DDCFC201C7
:101E8000B6010E94D90EA1960FB6F894DEBF0FBE20
:101E9000CDBFCF91DF911F910F91FF90EF90DF9019
:101EA000CF90BF90AF909F908F907F905F904F901A
:101EB0000895DC012115310541F4ED91FC9101906B
:101EC000F081E02D642F199508950E94F50E089574
:101ED000EF92FF920F931F939A017B0100E010E0B5
:101EE000B801A7010E94590F1F910F91FF90EF9029
:101EF0000895EF92FF920F931F939A01E62EFF240D
:101F000000E010E0B801A7010E94590F1F910F9146
:101F1000FF90EF900895CF92DF92EF92FF920F9390
:101F20001F93CF93DF93EC016A017B0121153105EB
:101F300041F4E881F9810190F081E02D642F199539
:101F40001FC02A303105D1F477FF17C0E881F9812D
:101F50000190F081E02D6DE219958C014427552701
:101F6000BA014C195D096E097F09CE012AE00E9471
:101F7000F50E9801280F391F04C02AE00E94F50EC3
:101F80009C01C901DF91CF911F910F91FF90EF90BC
:101F9000DF90CF900895EF92FF920F931F937B01F4
:101FA0009A010027F7FC0095102FB801A7010E94A5
:101FB0008B0F1F910F91FF90EF9008950E94D90E03
:101FC0000895EF92FF920F931F937C010E94D90E08
:101FD0008C01C7010E94B90E080F191FC8011F917B
:101FE0000F91FF90EF9008950F931F938C01FC01C8
:101FF000868160E00E94D90881E090E00E94BA07E3
:10200000F801868161E00E94D90881E090E00E9499
:10201000BA07F801868160E00E94D90884E690E062
:102020000E94BA071F910F910895CF92DF92EF920D
:10203000FF920F931F93CF93DF93D82EC92E282F93
:10204000392FC9018C01C0E0D0E0E62EFF24F80151
:10205000878161E00E942608B7010C2E02C07595A9
:1020600067950A94E2F76170F80187810E94D908A8
:1020700021960F5F1F4FC830D10549F78D2D9C2D3C
:102080000E94F40FDF91CF911F910F91FF90EF907D
:10209000DF90CF900895CF92DF92EF92FF920F934F
:1020A0001F93CF93DF93D82EC92E282F392FC90124
:1020B0008C01C0E0D0E0E62EFF24F801878161E0CA
:1020C0000E942608B7010C2E02C0759567950A94E8
:1020D000E2F76170F80187810E94D90821960F5FAD
:1020E0001F4FC430D10549F78D2D9C2D0E94F40F50
:1020F000DF91CF911F910F91FF90EF90DF90CF90E4
:1021000008951F93CF93DF93EC01162F8C81642FDA
:102110000E94D9088D818F3F19F060E00E94D90894
:102120008F8584FF05C0CE01612F0E9415100EC05F
:10213000612F70E084E0759567958A95E1F7CE018F
:102140000E944B10CE01612F0E944B10DF91CF9166
:102150001F91089541E00E94811081E090E0089570
:1021600040E00E9481100895FC016089862F846000
:10217000808B6C60CF010E94B0100895DF93CF93E5
:10218000CDB7DEB728970FB6F894DEBF0FBECDBF30
:102190009C01FE013196A2E7B3E088E00D90019228
:1021A0008150E1F7F9018389481710F0482F415019
:1021B000E42FF0E0EE0FFF1FEC0FFD1F8181680F91
:1021C0006068C9010E94B01028960FB6F894DEBF6F
:1021D0000FBECDBFCF91DF91089561E00E94B01096
:1021E00080ED97E00E94BA070895CF93DF93EC014A
:1021F000423018F08F8588608F874B8B1C8A222392
:1022000029F0413019F48F8584608F8780E593EC45
:102210000E94BA078C8160E00E94D9088E8160E03C
:102220000E94D9088D818F3F19F060E00E94D90883
:102230006F8564FD1DC0CE0163E00E944B1084E9F0
:1022400091E10E94BA07CE0163E00E944B1084E93D
:1022500091E10E94BA07CE0163E00E944B1086E92B
:1022600090E00E94BA07CE0162E00E944B1016C0B7
:102270006062CE010E94B01084E991E10E94BA0729
:102280006F856062CE010E94B01086E990E00E94E6
:10229000BA076F856062CE010E94B0106F856062E0
:1022A000CE010E94B01084E0888BCE010E94B41051
:1022B000CE010E94ED1082E0898BCE0166E00E9483
:1022C000B010DF91CF9108956F927F928F92AF926D
:1022D000CF92EF920F931F93DF93CF93CDB7DEB7DB
:1022E0003C01162F842FF301448325830683E78264
:1022F000C086A18682869E8593879F8594879889CC
:1023000095879989968761E00E942608F301858167
:102310008F3F19F061E00E942608F301868161E099
:102320000E942608112319F0F301178603C080E1EB
:10233000F3018787C30160E141E020E00E94F510CE
:10234000CF91DF911F910F91EF90CF90AF908F9031
:102350007F906F9008958F92AF92CF92EF920F93EC
:102360001F93CF93DF93DC01362F542F722F102F42
:10237000AE2C8C2C13961C921E9212978EE693E034
:1023800011969C938E9300D00F92EDB7FEB73196C5
:10239000CDB7DEB71982118212821382CD0161E0BE
:1023A000432F2FEF052FE72EC12E0E9464110F90AF
:1023B0000F900F900F90DF91CF911F910F91EF90A1
:1023C000CF90AF908F900895FC01848195810895FE
:1023D000CF93DF93EC018E819F818F5F9F4F99F4A4
:1023E00014C0E881F9810680F781E02DCE011995AE
:1023F000BC01813291054CF0E881F9810284F385BA
:10240000E02DCE01199581E011C0E881F9810484A5
:10241000F585E02DCE011995DC01ED91FC9104804C
:10242000F581E02D1995892BE1F680E0DF91CF91C0
:102430000895772767FD7095FC017783668308957B
:102440001F93DC01162FED91FC910484F585E02D9E
:102450001995FC01A081B1812D913C91612FF90169
:1024600019951F910895CF92DF92EF92FF920F93EB
:102470001F93CF93DF937C016B018A01C0E0D0E012
:1024800011C0D701ED91FC910680F781E02DC701C5
:102490001995BFEF8F3F9B0749F0F601EC0FFD1F29
:1024A00080832196C017D10760F3E801CE01DF9148
:1024B000CF911F910F91FF90EF90DF90CF900895F3
:1024C000CF93DF93EB01DA01EE81FF8141155105D6
:1024D00091F0309719F45F834E830DC0CF010280D5
:1024E000F381E02D3097D1F7FC01B383A2831596D9
:1024F0009C938E931497DF91CF9108950F938EEA5A
:1025000097E060E040E020E000E00E942A0E0F919A
:102510000895EF92FF920F931F93CF93DF937B0168
:102520008A01E9012115310511F18881998100970E
:1025300011F00E94D815C8010E943A01888399833E
:10254000D7011696ED91FC911797309729F41796BD
:10255000DC93CE9316970BC0CF010280F381E02D60
:102560003097D1F7FC01D383C2839D838C83DF91A5
:10257000CF911F910F91FF90EF9008950F931F93AC
:10258000CF93DF93182F092FEB016AE373E00E94CA
:10259000DE0F209709F048C04BC0603238F062323D
:1025A00029F06C3519F0812F902F3BC0812F902F8F
:1025B0006CE50E94B10E88818C3021F18D303CF4A5
:1025C000893061F18A3011F1883069F517C08232A3
:1025D00069F083321CF48D3031F51CC08F3251F01C
:1025E0008C3509F5812F902F6CE51BC0812F902F22
:1025F00062E217C0812F902F6FE213C0812F902FBE
:1026000062E60FC0812F902F66E60BC0812F902FBE
:102610006EE607C0812F902F62E703C0812F902FB5
:1026200064E70E94B10E21966881662309F0B5CF58
:10263000812F902F62E20E94B10E80E090E0DF9146
:10264000CF911F910F9108958F929F92AF92BF9259
:10265000CF92DF92EF92FF920F931F93CF93DF936E
:102660004C01FB016115710509F46AC0A184B284B3
:10267000C384D484C601B50120E030E040E050E0DE
:102680000E94D51688234CF4C4016CE373E00E94C9
:10269000DE0FD7FAD094D7F8D094C601B5010E94C6
:1026A000DE167B018C01C401B801A7012AE030E0ED
:1026B0000E94590FC4016EE373E00E94DE0FC8014F
:1026C000B7010E940A179B01AC01C601B5010E9427
:1026D00070162CEA35EC47EA56E30E9471167B012E
:1026E0008C01C5E0D0E0C801B70120E030E040E255
:1026F00051E40E94BC175B016C010E94DE169B0135
:10270000AC017B01C401B9014AE050E00E94680FAE
:1027100000E010E0C801B7010E940A179B01AC015C
:10272000C601B5010E9470167B018C0120E030E0EB
:1027300040E050E00E94D516882311F0219799F6C9
:1027400080E090E0DF91CF911F910F91FF90EF908B
:10275000DF90CF90BF90AF909F908F900895FB0136
:102760006115710519F420E030E007C061857285BC
:102770004AE050E00E94CB0F9C01C9010895FB0183
:102780006115710591F120852330E9F024303CF486
:102790002130A1F0223064F4222369F026C02530D4
:1027A000C1F025309CF02630C9F02730F1F419C073
:1027B00060E473E005C065E473E002C06BE473E0BD
:1027C0000E94DE0F10C00E94AF130DC00E942413A0
:1027D0000AC0618572850E94BE1205C00E94421423
:1027E00002C00E94F9139C0102C020E030E0C90140
:1027F00008950F931F93CF93DF93182F092FFB0199
:1028000061157105B9F1C681D7816BE721C0688177
:102810007981812F902F0E94BE128F5F9F4F39F1D7
:10282000812F902F6AE30E94B10E8F5F9F4FF9F0C6
:10283000812F902FBE010E94BF138F5F9F4FB9F071
:102840000A80DB81C02D209741F0812F902F6CE210
:102850000E94B10E8F5F9F4F51F02097C1F6812FDC
:10286000902F6DE70E94B10E8F5F9F4F19F42FEFED
:102870003FEF02C020E030E0C901DF91CF911F910E
:102880000F9108950F931F93CF93DF93182F092F64
:10289000FB016115710531F1C681D7816BE510C06F
:1028A000812F902FBE010E94BF138F5F9F4FB9F001
:1028B0000A80DB81C02D209741F0812F902F6CE2A0
:1028C0000E94B10E8F5F9F4F51F0209749F7812FE3
:1028D000902F6DE50E94B10E8F5F9F4F19F42FEF7F
:1028E0003FEF02C020E030E0C901DF91CF911F919E
:1028F0000F910895CA010E94BF1308958DE090E0E2
:102900000E945115FC01009729F08DE0DF011D9216
:102910008A95E9F7CF0108950E947E14FC01009783
:1029200011F087E08087CF0108950E947E14FC019A
:10293000009711F086E08087CF0108950F931F93D1
:10294000CF93DF938B010E947E14EC01009739F046
:1029500085E08887C8010E943A0189879A87CE015D
:10296000DF91CF911F910F910895CF92DF92EF9257
:10297000FF920F931F938C017B016A01B9010E94A2
:102980009E149C01C801B701A6010E9489121F91E3
:102990000F91FF90EF90DF90CF900895EF92FF920C
:1029A0000F931F937A018B010E947E14FC01009704
:1029B00031F084E08087E186F28603871487CF01B7
:1029C0001F910F91FF90EF900895AF92BF92CF9219
:1029D000DF92EF92FF920F931F937C016B015A01DC
:1029E000B901A8010E94CE149C01C701B601A5013E
:1029F0000E9489121F910F91FF90EF90DF90CF906E
:102A0000BF90AF900895EF92FF920F931F93CF93D3
:102A1000DF93EC012E813F818FEF2F3F380729F0A4
:102A20008FEF9FEF9F838E8324C00E9453077B010B
:102A30008C0184EF91E0A0E0B0E0E80EF91E0A1FDF
:102A40001B1FE881F9810484F585E02DCE011995DD
:102A5000DC01ED91FC910480F581E02D1995892B25
:102A600081F40E9453076E157F058007910748F493
:102A7000E8CFC901DF91CF911F910F91FF90EF90A7
:102A80000895E881F9810484F585E02DCE0119953A
:102A9000DC01ED91FC910680F781E02D19959C01F8
:102AA000E8CF0F931F93CF93DF93BC018230910542
:102AB00010F462E070E0E091B407F091B507A0E097
:102AC000B0E040E050E024C08081918186179707F4
:102AD000D0F08617970771F482819381109729F0BF
:102AE00013969C938E9312972CC09093B507809366
:102AF000B40727C04115510519F08417950718F43C
:102B0000EF018D01AC01DF01828193819C01F9010C
:102B10003097D1F641155105F9F0CA01861B970B84
:102B20008430910580F48A819B810115110521F083
:102B3000F8019383828304C09093B5078093B40710
:102B4000FE0132962FC0FE01E80FF91F61937193C9
:102B500002979983888326C08DB79EB78857904087
:102B6000209150033091510328173907C8F4AC0164
:102B7000421B530B4617570798F0CB010296481794
:102B8000590770F0820F931F909351038093500365
:102B90009093530380935203F9016193719302C0A0
:102BA000E0E0F0E0CF01DF91CF911F910F91089508
:102BB000CF93DF939C01009709F48FC0EC0122971B
:102BC0001B821A826091B4077091B5076115710577
:102BD00081F488819981820F931F20915003309155
:102BE00051032817390739F5D0935103C093500387
:102BF00074C0DB0140E050E0AC17BD0708F1BB83B7
:102C0000AA83FE0121913191E20FF31FAE17BF0796
:102C100079F48D919C911197280F391F2E5F3F4FAA
:102C20003983288312968D919C9113979B838A8375
:102C30004115510571F4D093B507C093B4074DC049
:102C400012968D919C911397AD01009711F0DC01C4
:102C5000D3CFDA011396DC93CE931297FA01219128
:102C60003191E20FF31FCE17DF0769F48881998154
:102C7000280F391F2E5F3F4FFA01318320838A814D
:102C80009B8193838283E0E0F0E0DB0112968D91DB
:102C90009C911397009719F0BC01FD01F6CFAB0191
:102CA0004E5F5F4FDB018D919C91840F951F2091AA
:102CB0005003309151032817390779F4309729F4DC
:102CC0001092B5071092B40702C0138212824250CC
:102CD00050405093510340935003DF91CF9108959A
:102CE0005058BB27AA270ED00DC1FED030F003D11B
:102CF00020F031F49F3F11F41EF4F3C00EF4E09580
:102D0000E7FBE9C0E92F0FD180F3BA176207730719
:102D10008407950718F071F49EF527C10EF4E0952D
:102D20000B2EBA2FA02D0B01B90190010C01CA0185
:102D3000A0011124FF27591B99F0593F50F4503E30
:102D400068F11A16F040A22F232F342F4427585F22
:102D5000F3CF469537952795A795F0405395C9F73A
:102D60007EF41F16BA0B620B730B840BBAF09150F2
:102D7000A1F0FF0FBB1F661F771F881FC2F70EC091
:102D8000BA0F621F731F841F48F487957795679564
:102D9000B795F7959E3F08F0B3CF9395880F08F04D
:102DA0009927EE0F97958795089571D008F481E0E3
:102DB000089504D06894B111D9C00895BCD088F0AA
:102DC0009F5790F0B92F9927B751A0F0D1F0660F17
:102DD000771F881F991F1AF0BA95C9F712C0B13032
:102DE00081F0C3D0B1E00895C0C0672F782F882745
:102DF000B85F39F0B93FCCF3869577956795B39571
:102E0000D9F73EF490958095709561957F4F8F4FDF
:102E10009F4F0895E89409C097FB3EF490958095E4
:102E2000709561957F4F8F4F9F4F9923A9F0F92F90
:102E300096E9BB279395F695879577956795B7950E
:102E4000F111F8CFFAF4BB0F11F460FF1BC06F5FF4
:102E50007F4F8F4F9F4F16C0882311F096E911C006
:102E6000772321F09EE8872F762F05C0662371F027
:102E700096E8862F70E060E02AF09A95660F771F3B
:102E8000881FDAF7880F9695879597F90895990F17
:102E90000008550FAA0BE0E8FEEF16161706E80724
:102EA000F907C0F012161306E407F50798F0621B45
:102EB000730B840B950B39F40A2661F0232B242B1A
:102EC000252B21F408950A2609F4A140A6958FEF39
:102ED000811D811D089597F99F6780E870E060E08B
:102EE00008959FEF80EC089500240A9416161706A3
:102EF00018060906089500240A94121613061406EB
:102F000005060895092E0394000C11F4882352F04D
:102F1000BB0F40F4BF2B11F460FF04C06F5F7F4F05
:102F20008F4F9F4F089557FD9058440F551F59F0EC
:102F30005F3F71F04795880F97FB991F61F09F3FA6
:102F400079F087950895121613061406551FF2CFCF
:102F50004695F1DF08C0161617061806991FF1CF1F
:102F600086957105610508940895E894BB27662746
:102F70007727CB0197F908950BD0C4CFB5DF28F0A0
:102F8000BADF18F0952309F0A6CFABCF1124EECF0E
:102F9000CADFA0F3959FD1F3950F50E0551F629FB4
:102FA000F001729FBB27F00DB11D639FAA27F00DA2
:102FB000B11DAA1F649F6627B00DA11D661F829FC9
:102FC0002227B00DA11D621F739FB00DA11D621FAE
:102FD000839FA00D611D221F749F3327A00D611DCB
:102FE000231F849F600D211D822F762F6A2F1124AD
:102FF0009F5750408AF0E1F088234AF0EE0FFF1F00
:10300000BB1F661F771F881F91505040A9F79E3F36
:10301000510570F060CFAACF5F3FECF3983EDCF330
:10302000869577956795B795F795E7959F5FC1F773
:10303000FE2B880F911D9695879597F90895629FAD
:10304000D001739FF001829FE00DF11D649FE00DA0
:10305000F11D929FF00D839FF00D749FF00D659F01
:10306000F00D9927729FB00DE11DF91F639FB00D00
:10307000E11DF91FBD01CF0111240895AA1BBB1B3F
:1030800051E107C0AA1FBB1FA617B70710F0A61B68
:10309000B70B881F991F5A95A9F780959095BC0189
:1030A000CD010895A1E21A2EAA1BBB1BFD010DC084
:1030B000AA1FBB1FEE1FFF1FA217B307E407F507E8
:1030C00020F0A21BB30BE40BF50B661F771F881FC4
:1030D000991F1A9469F760957095809590959B015A
:1030E000AC01BD01CF010895EE0FFF1F0590F491D3
:0830F000E02D1994F894FFCFC4
:1030F800434F554E5445523A20000000000000004E
:103108000000000000572E64657074683A200000C3
:10311800000000000000572E696E636865733A204E
:1031280000000000000000454D5054592120004C7B
:103138004F572120004E4F524D414C2000544F4FC5
:1031480020484947482120005761746572207465FA
:103158006D703A20000000000057617465723A20D3
:1031680000000000000000000000506C616E742038
:1031780074656D703A2000000000000000430000F4
:1031880048756D69646974793A2000000000000090
:1031980000000025000057617465722050504D3AB8
:1031A8002000000000000057617465722070483AE2
:1031B800200000000000000043616C6962726174C5
:1031C800696E670020200073656E736F72732E2E10
:1031D8002E002020200053656E736F7273206F6B72
:1031E80061792E00004F4B006163636573736564FA
:1031F800007375636365737300737461747573002A
:10320800636865636B73756D0074797065007068C9
:103218000076616C756500756E697400696E636827
:103228000072656164696E67730022002D002E00CC
:103238006E756C6C0066616C736500747275650000
:10324800B607640000000000B40C870E4A0C7B0C23
:103258005B0CA40C00000000450E00000000AA1042
:10326800870E0000400014005400000000002012E7
:0C327800870EE811031533121912E4113F
:00000001FF
